{
  "contractName": "VRFD20",
  "abi": [
    {
      "inputs": [
        {
          "internalType": "address",
          "name": "vrfCoordinator",
          "type": "address"
        },
        {
          "internalType": "address",
          "name": "link",
          "type": "address"
        },
        {
          "internalType": "bytes32",
          "name": "keyHash",
          "type": "bytes32"
        },
        {
          "internalType": "uint256",
          "name": "fee",
          "type": "uint256"
        }
      ],
      "stateMutability": "nonpayable",
      "type": "constructor"
    },
    {
      "anonymous": false,
      "inputs": [
        {
          "indexed": true,
          "internalType": "bytes32",
          "name": "requestId",
          "type": "bytes32"
        },
        {
          "indexed": true,
          "internalType": "uint256",
          "name": "result",
          "type": "uint256"
        }
      ],
      "name": "DiceLanded",
      "type": "event"
    },
    {
      "anonymous": false,
      "inputs": [
        {
          "indexed": true,
          "internalType": "bytes32",
          "name": "requestId",
          "type": "bytes32"
        },
        {
          "indexed": true,
          "internalType": "address",
          "name": "roller",
          "type": "address"
        }
      ],
      "name": "DiceRolled",
      "type": "event"
    },
    {
      "anonymous": false,
      "inputs": [
        {
          "indexed": true,
          "internalType": "address",
          "name": "from",
          "type": "address"
        },
        {
          "indexed": true,
          "internalType": "address",
          "name": "to",
          "type": "address"
        }
      ],
      "name": "OwnershipTransferRequested",
      "type": "event"
    },
    {
      "anonymous": false,
      "inputs": [
        {
          "indexed": true,
          "internalType": "address",
          "name": "from",
          "type": "address"
        },
        {
          "indexed": true,
          "internalType": "address",
          "name": "to",
          "type": "address"
        }
      ],
      "name": "OwnershipTransferred",
      "type": "event"
    },
    {
      "anonymous": false,
      "inputs": [
        {
          "indexed": false,
          "internalType": "uint256",
          "name": "amount",
          "type": "uint256"
        },
        {
          "indexed": true,
          "internalType": "address",
          "name": "roller",
          "type": "address"
        }
      ],
      "name": "won",
      "type": "event"
    },
    {
      "inputs": [],
      "name": "acceptOwnership",
      "outputs": [],
      "stateMutability": "nonpayable",
      "type": "function"
    },
    {
      "inputs": [],
      "name": "owner",
      "outputs": [
        {
          "internalType": "address",
          "name": "",
          "type": "address"
        }
      ],
      "stateMutability": "view",
      "type": "function"
    },
    {
      "inputs": [
        {
          "internalType": "bytes32",
          "name": "requestId",
          "type": "bytes32"
        },
        {
          "internalType": "uint256",
          "name": "randomness",
          "type": "uint256"
        }
      ],
      "name": "rawFulfillRandomness",
      "outputs": [],
      "stateMutability": "nonpayable",
      "type": "function"
    },
    {
      "inputs": [
        {
          "internalType": "address",
          "name": "_to",
          "type": "address"
        }
      ],
      "name": "transferOwnership",
      "outputs": [],
      "stateMutability": "nonpayable",
      "type": "function"
    },
    {
      "inputs": [
        {
          "internalType": "address",
          "name": "",
          "type": "address"
        }
      ],
      "name": "users",
      "outputs": [
        {
          "internalType": "address",
          "name": "userAddress",
          "type": "address"
        },
        {
          "internalType": "bool",
          "name": "isRolling",
          "type": "bool"
        },
        {
          "internalType": "uint256",
          "name": "chosenNum",
          "type": "uint256"
        },
        {
          "internalType": "uint256",
          "name": "etherSent",
          "type": "uint256"
        }
      ],
      "stateMutability": "view",
      "type": "function"
    },
    {
      "inputs": [
        {
          "internalType": "address",
          "name": "_roller",
          "type": "address"
        },
        {
          "internalType": "uint256",
          "name": "_chosenNum",
          "type": "uint256"
        }
      ],
      "name": "initProcess",
      "outputs": [
        {
          "internalType": "bytes32",
          "name": "requestId",
          "type": "bytes32"
        }
      ],
      "stateMutability": "payable",
      "type": "function"
    },
    {
      "inputs": [
        {
          "internalType": "address",
          "name": "to",
          "type": "address"
        },
        {
          "internalType": "uint256",
          "name": "value",
          "type": "uint256"
        }
      ],
      "name": "withdrawLINK",
      "outputs": [],
      "stateMutability": "nonpayable",
      "type": "function"
    },
    {
      "inputs": [
        {
          "internalType": "bytes32",
          "name": "keyHash",
          "type": "bytes32"
        }
      ],
      "name": "setKeyHash",
      "outputs": [],
      "stateMutability": "nonpayable",
      "type": "function"
    },
    {
      "inputs": [],
      "name": "keyHash",
      "outputs": [
        {
          "internalType": "bytes32",
          "name": "",
          "type": "bytes32"
        }
      ],
      "stateMutability": "view",
      "type": "function"
    },
    {
      "inputs": [
        {
          "internalType": "uint256",
          "name": "fee",
          "type": "uint256"
        }
      ],
      "name": "setFee",
      "outputs": [],
      "stateMutability": "nonpayable",
      "type": "function"
    },
    {
      "inputs": [],
      "name": "fee",
      "outputs": [
        {
          "internalType": "uint256",
          "name": "",
          "type": "uint256"
        }
      ],
      "stateMutability": "view",
      "type": "function"
    }
  ],
  "bytecode": "0x60c060405234801561001057600080fd5b50604051611ad0380380611ad08339818101604052608081101561003357600080fd5b810190808051906020019092919080519060200190929190805190602001909291908051906020019092919050505083838173ffffffffffffffffffffffffffffffffffffffff1660a08173ffffffffffffffffffffffffffffffffffffffff166c0100000000000000000000000002815250508073ffffffffffffffffffffffffffffffffffffffff1660808173ffffffffffffffffffffffffffffffffffffffff166c010000000000000000000000000281525050505033600160006101000a81548173ffffffffffffffffffffffffffffffffffffffff021916908373ffffffffffffffffffffffffffffffffffffffff1602179055508160038190555080600481905550505050506080516c01000000000000000000000000900460a0516c01000000000000000000000000900461193f61019160003980610a9752806110925250806104d35280610c295280611056525061193f6000f3fe6080604052600436106100b9576000357c01000000000000000000000000000000000000000000000000000000009004806394985ddd1161008157806394985ddd146101f4578063983fbab2146102395780639854471014610294578063a87430ba146102cf578063ddca3f4314610379578063f2fde38b146103a4576100b9565b806361728f39146100be57806369fe0e2d146100e9578063729486151461012457806379ba5097146101865780638da5cb5b1461019d575b600080fd5b3480156100ca57600080fd5b506100d36103f5565b6040518082815260200191505060405180910390f35b3480156100f557600080fd5b506101226004803603602081101561010c57600080fd5b81019080803590602001909291905050506103ff565b005b6101706004803603604081101561013a57600080fd5b81019080803573ffffffffffffffffffffffffffffffffffffffff169060200190929190803590602001909291905050506104cc565b6040518082815260200191505060405180910390f35b34801561019257600080fd5b5061019b6108a5565b005b3480156101a957600080fd5b506101b2610a6f565b604051808273ffffffffffffffffffffffffffffffffffffffff1673ffffffffffffffffffffffffffffffffffffffff16815260200191505060405180910390f35b34801561020057600080fd5b506102376004803603604081101561021757600080fd5b810190808035906020019092919080359060200190929190505050610a95565b005b34801561024557600080fd5b506102926004803603604081101561025c57600080fd5b81019080803573ffffffffffffffffffffffffffffffffffffffff16906020019092919080359060200190929190505050610b64565b005b3480156102a057600080fd5b506102cd600480360360208110156102b757600080fd5b8101908080359060200190929190505050610d9b565b005b3480156102db57600080fd5b5061031e600480360360208110156102f257600080fd5b81019080803573ffffffffffffffffffffffffffffffffffffffff169060200190929190505050610e68565b604051808573ffffffffffffffffffffffffffffffffffffffff1673ffffffffffffffffffffffffffffffffffffffff1681526020018415151515815260200183815260200182815260200194505050505060405180910390f35b34801561038557600080fd5b5061038e610ec5565b6040518082815260200191505060405180910390f35b3480156103b057600080fd5b506103f3600480360360208110156103c757600080fd5b81019080803573ffffffffffffffffffffffffffffffffffffffff169060200190929190505050610ecf565b005b6000600354905090565b600160009054906101000a900473ffffffffffffffffffffffffffffffffffffffff1673ffffffffffffffffffffffffffffffffffffffff163373ffffffffffffffffffffffffffffffffffffffff16146104c2576040517f08c379a00000000000000000000000000000000000000000000000000000000081526004018080602001828103825260168152602001807f4f6e6c792063616c6c61626c65206279206f776e65720000000000000000000081525060200191505060405180910390fd5b8060048190555050565b60006004547f000000000000000000000000000000000000000000000000000000000000000073ffffffffffffffffffffffffffffffffffffffff166370a08231306040518263ffffffff167c0100000000000000000000000000000000000000000000000000000000028152600401808273ffffffffffffffffffffffffffffffffffffffff1673ffffffffffffffffffffffffffffffffffffffff16815260200191505060206040518083038186803b15801561058a57600080fd5b505afa15801561059e573d6000803e3d6000fd5b505050506040513d60208110156105b457600080fd5b81019080805190602001909291905050501015610639576040517f08c379a000000000000000000000000000000000000000000000000000000000815260040180806020018281038252601a8152602001807f4e6f7420656e6f756768204c494e4b20746f207061792066656500000000000081525060200191505060405180910390fd5b60001515600560008573ffffffffffffffffffffffffffffffffffffffff1673ffffffffffffffffffffffffffffffffffffffff16815260200190815260200160002060000160149054906101000a900460ff16151514610702576040517f08c379a000000000000000000000000000000000000000000000000000000000815260040180806020018281038252600e8152602001807f416c726561647920726f6c6c656400000000000000000000000000000000000081525060200191505060405180910390fd5b610710600354600454611052565b9050826006600083815260200190815260200160002060006101000a81548173ffffffffffffffffffffffffffffffffffffffff021916908373ffffffffffffffffffffffffffffffffffffffff16021790555060405180608001604052808473ffffffffffffffffffffffffffffffffffffffff16815260200160011515815260200183815260200134815250600560008573ffffffffffffffffffffffffffffffffffffffff1673ffffffffffffffffffffffffffffffffffffffff16815260200190815260200160002060008201518160000160006101000a81548173ffffffffffffffffffffffffffffffffffffffff021916908373ffffffffffffffffffffffffffffffffffffffff16021790555060208201518160000160146101000a81548160ff02191690831515021790555060408201518160010155606082015181600201559050508273ffffffffffffffffffffffffffffffffffffffff16817f923de4fc4aece24a78a9e4ca3009c571a742f81ac2c004a229224b0fd1883bdd60405160405180910390a392915050565b600260009054906101000a900473ffffffffffffffffffffffffffffffffffffffff1673ffffffffffffffffffffffffffffffffffffffff163373ffffffffffffffffffffffffffffffffffffffff1614610968576040517f08c379a00000000000000000000000000000000000000000000000000000000081526004018080602001828103825260168152602001807f4d7573742062652070726f706f736564206f776e65720000000000000000000081525060200191505060405180910390fd5b6000600160009054906101000a900473ffffffffffffffffffffffffffffffffffffffff16905033600160006101000a81548173ffffffffffffffffffffffffffffffffffffffff021916908373ffffffffffffffffffffffffffffffffffffffff1602179055506000600260006101000a81548173ffffffffffffffffffffffffffffffffffffffff021916908373ffffffffffffffffffffffffffffffffffffffff1602179055503373ffffffffffffffffffffffffffffffffffffffff168173ffffffffffffffffffffffffffffffffffffffff167f8be0079c531659141344cd1fd0a4f28419497f9722a3daafe3b4186f6b6457e060405160405180910390a350565b600160009054906101000a900473ffffffffffffffffffffffffffffffffffffffff1681565b7f000000000000000000000000000000000000000000000000000000000000000073ffffffffffffffffffffffffffffffffffffffff163373ffffffffffffffffffffffffffffffffffffffff1614610b56576040517f08c379a000000000000000000000000000000000000000000000000000000000815260040180806020018281038252601f8152602001807f4f6e6c7920565246436f6f7264696e61746f722063616e2066756c66696c6c0081525060200191505060405180910390fd5b610b60828261127a565b5050565b600160009054906101000a900473ffffffffffffffffffffffffffffffffffffffff1673ffffffffffffffffffffffffffffffffffffffff163373ffffffffffffffffffffffffffffffffffffffff1614610c27576040517f08c379a00000000000000000000000000000000000000000000000000000000081526004018080602001828103825260168152602001807f4f6e6c792063616c6c61626c65206279206f776e65720000000000000000000081525060200191505060405180910390fd5b7f000000000000000000000000000000000000000000000000000000000000000073ffffffffffffffffffffffffffffffffffffffff1663a9059cbb83836040518363ffffffff167c0100000000000000000000000000000000000000000000000000000000028152600401808373ffffffffffffffffffffffffffffffffffffffff1673ffffffffffffffffffffffffffffffffffffffff16815260200182815260200192505050602060405180830381600087803b158015610cea57600080fd5b505af1158015610cfe573d6000803e3d6000fd5b505050506040513d6020811015610d1457600080fd5b8101908080519060200190929190505050610d97576040517f08c379a000000000000000000000000000000000000000000000000000000000815260040180806020018281038252600f8152602001807f4e6f7420656e6f756768204c494e4b000000000000000000000000000000000081525060200191505060405180910390fd5b5050565b600160009054906101000a900473ffffffffffffffffffffffffffffffffffffffff1673ffffffffffffffffffffffffffffffffffffffff163373ffffffffffffffffffffffffffffffffffffffff1614610e5e576040517f08c379a00000000000000000000000000000000000000000000000000000000081526004018080602001828103825260168152602001807f4f6e6c792063616c6c61626c65206279206f776e65720000000000000000000081525060200191505060405180910390fd5b8060038190555050565b60056020528060005260406000206000915090508060000160009054906101000a900473ffffffffffffffffffffffffffffffffffffffff16908060000160149054906101000a900460ff16908060010154908060020154905084565b6000600454905090565b600160009054906101000a900473ffffffffffffffffffffffffffffffffffffffff1673ffffffffffffffffffffffffffffffffffffffff163373ffffffffffffffffffffffffffffffffffffffff1614610f92576040517f08c379a00000000000000000000000000000000000000000000000000000000081526004018080602001828103825260168152602001807f4f6e6c792063616c6c61626c65206279206f776e65720000000000000000000081525060200191505060405180910390fd5b80600260006101000a81548173ffffffffffffffffffffffffffffffffffffffff021916908373ffffffffffffffffffffffffffffffffffffffff1602179055508073ffffffffffffffffffffffffffffffffffffffff16600160009054906101000a900473ffffffffffffffffffffffffffffffffffffffff1673ffffffffffffffffffffffffffffffffffffffff167fed8889f560326eb138920d842192f0eb3dd22b4f139c87a2c57538e05bae127860405160405180910390a350565b60007f000000000000000000000000000000000000000000000000000000000000000073ffffffffffffffffffffffffffffffffffffffff16634000aea07f00000000000000000000000000000000000000000000000000000000000000008486600060405160200180838152602001828152602001925050506040516020818303038152906040526040518463ffffffff167c0100000000000000000000000000000000000000000000000000000000028152600401808473ffffffffffffffffffffffffffffffffffffffff1673ffffffffffffffffffffffffffffffffffffffff16815260200183815260200180602001828103825283818151815260200191508051906020019080838360005b8381101561117e578082015181840152602081019050611163565b50505050905090810190601f1680156111ab5780820380516001836020036101000a031916815260200191505b50945050505050602060405180830381600087803b1580156111cc57600080fd5b505af11580156111e0573d6000803e3d6000fd5b505050506040513d60208110156111f657600080fd5b81019080805190602001909291905050505060006112298460003060008089815260200190815260200160002054611743565b90506112516001600080878152602001908152602001600020546117be90919063ffffffff16565b600080868152602001908152602001600020819055506112718482611846565b91505092915050565b60006112a3600161129560048561187f90919063ffffffff16565b6117be90919063ffffffff16565b905080600760006006600087815260200190815260200160002060009054906101000a900473ffffffffffffffffffffffffffffffffffffffff1673ffffffffffffffffffffffffffffffffffffffff1673ffffffffffffffffffffffffffffffffffffffff168152602001908152602001600020819055506000600560006006600087815260200190815260200160002060009054906101000a900473ffffffffffffffffffffffffffffffffffffffff1673ffffffffffffffffffffffffffffffffffffffff1673ffffffffffffffffffffffffffffffffffffffff16815260200190815260200160002060000160146101000a81548160ff02191690831515021790555080600560006006600087815260200190815260200160002060009054906101000a900473ffffffffffffffffffffffffffffffffffffffff1673ffffffffffffffffffffffffffffffffffffffff1673ffffffffffffffffffffffffffffffffffffffff1681526020019081526020016000206001015414156115b15760006006600085815260200190815260200160002060009054906101000a900473ffffffffffffffffffffffffffffffffffffffff16905060006064606360056000600660008a815260200190815260200160002060009054906101000a900473ffffffffffffffffffffffffffffffffffffffff1673ffffffffffffffffffffffffffffffffffffffff1673ffffffffffffffffffffffffffffffffffffffff1681526020019081526020016000206002015402816114e357fe5b0490508173ffffffffffffffffffffffffffffffffffffffff166108fc829081150290604051600060405180830381858888f1935050505015801561152c573d6000803e3d6000fd5b506006600086815260200190815260200160002060009054906101000a900473ffffffffffffffffffffffffffffffffffffffff1673ffffffffffffffffffffffffffffffffffffffff167fc229d2f03cc0815fe63e0d25de60a5b897242bed47a366850d9e1ca0fcf6b47b826040518082815260200191505060405180910390a250505b60405180608001604052806006600086815260200190815260200160002060009054906101000a900473ffffffffffffffffffffffffffffffffffffffff1673ffffffffffffffffffffffffffffffffffffffff168152602001600015158152602001600081526020016000815250600560006006600087815260200190815260200160002060009054906101000a900473ffffffffffffffffffffffffffffffffffffffff1673ffffffffffffffffffffffffffffffffffffffff1673ffffffffffffffffffffffffffffffffffffffff16815260200190815260200160002060008201518160000160006101000a81548173ffffffffffffffffffffffffffffffffffffffff021916908373ffffffffffffffffffffffffffffffffffffffff16021790555060208201518160000160146101000a81548160ff021916908315150217905550604082015181600101556060820151816002015590505080837f909dd726737b7ffa4ae9d137e9edebe8a74a9c2910a4b60e8112f93ab217083760405160405180910390a3505050565b600084848484604051602001808581526020018481526020018373ffffffffffffffffffffffffffffffffffffffff1673ffffffffffffffffffffffffffffffffffffffff16815260200182815260200194505050505060405160208183030381529060405280519060200120600190049050949350505050565b60008082840190508381101561183c576040517f08c379a000000000000000000000000000000000000000000000000000000000815260040180806020018281038252601b8152602001807f536166654d6174683a206164646974696f6e206f766572666c6f77000000000081525060200191505060405180910390fd5b8091505092915050565b60008282604051602001808381526020018281526020019250505060405160208183030381529060405280519060200120905092915050565b6000808214156118f7576040517f08c379a00000000000000000000000000000000000000000000000000000000081526004018080602001828103825260188152602001807f536166654d6174683a206d6f64756c6f206279207a65726f000000000000000081525060200191505060405180910390fd5b81838161190057fe5b0690509291505056fea26469706673582212209a35eaf685d5378ee0a7fb42e65fc652d984cff61ccdff351e2864f0e0aa58c164736f6c63430006060033",
  "immutableReferences": {
    "510": [
      {
        "length": 32,
        "start": 1235
      },
      {
        "length": 32,
        "start": 3113
      },
      {
        "length": 32,
        "start": 4182
      }
    ],
    "512": [
      {
        "length": 32,
        "start": 2711
      },
      {
        "length": 32,
        "start": 4242
      }
    ]
  },
  "source": "// SPDX-License-Identifier: MIT\npragma solidity 0.6.6;\n\nimport \"@chainlink/contracts/src/v0.6/VRFConsumerBase.sol\";\nimport \"@chainlink/contracts/src/v0.6/Owned.sol\";\n\ncontract VRFD20 is VRFConsumerBase, Owned {\n    using SafeMathChainlink for uint256;\n\n    uint256 private constant ROLL_IN_PROGRESS = 42;\n\n    bytes32 private s_keyHash;\n    uint256 private s_fee;\n    \n    struct User {\n        address userAddress;\n        bool isRolling;\n        uint256 chosenNum;\n        uint256 etherSent;\n    }\n    \n    mapping(address => User) public users;\n    mapping(bytes32 => address) private s_rollers;\n    mapping(address => uint256) private s_results;\n\n    event DiceRolled(bytes32 indexed requestId, address indexed roller);\n    event DiceLanded(bytes32 indexed requestId, uint256 indexed result);\n    event won(uint256 amount, address indexed roller);\n\n    /**\n     * @dev NETWORK: KOVAN\n     * @dev   Chainlink VRF Coordinator address: 0xdD3782915140c8f3b190B5D67eAc6dc5760C46E9\n     * @dev   LINK token address:                0xa36085F69e2889c224210F603D836748e7dC0088\n     * @dev   Key Hash:   0x6c3699283bda56ad74f6b855546325b68d482e983852a7a82979cc4807b641f4\n     * @dev   Fee:        0.1 LINK (100000000000000000)\n     */\n    constructor(address vrfCoordinator, address link, bytes32 keyHash, uint256 fee)\n        public\n        VRFConsumerBase(vrfCoordinator, link)\n    {\n        s_keyHash = keyHash;\n        s_fee = fee;\n        \n    }\n\n   \n    function initProcess(address _roller, uint256 _chosenNum) payable public returns (bytes32 requestId){\n        require(LINK.balanceOf(address(this)) >= s_fee, \"Not enough LINK to pay fee\");\n        require(users[_roller].isRolling == false, \"Already rolled\");\n        requestId = requestRandomness(s_keyHash, s_fee);\n        s_rollers[requestId] = _roller;\n        users[_roller] = User(_roller, true, _chosenNum, msg.value);\n        emit DiceRolled(requestId, _roller);\n    }\n    \n    function fulfillRandomness(bytes32 requestId, uint256 randomness) internal override {\n        uint256 randomNumber = randomness.mod(4).add(1);\n        s_results[s_rollers[requestId]] = randomNumber;\n        users[s_rollers[requestId]].isRolling = false;\n        if(users[s_rollers[requestId]].chosenNum == randomNumber){\n            address payable wallet = payable(s_rollers[requestId]);\n            uint256 amount = users[s_rollers[requestId]].etherSent * 99 / 100;\n            wallet.transfer(amount);\n            emit won(amount, s_rollers[requestId]);\n        }\n        users[s_rollers[requestId]] = User(s_rollers[requestId], false, 0, 0);\n        emit DiceLanded(requestId, randomNumber);\n    }\n    function withdrawLINK(address to, uint256 value) public onlyOwner {\n        require(LINK.transfer(to, value), \"Not enough LINK\");\n    }\n\n    function setKeyHash(bytes32 keyHash) public onlyOwner {\n        s_keyHash = keyHash;\n    }\n\n    function keyHash() public view returns (bytes32) {\n        return s_keyHash;\n    }\n\n    function setFee(uint256 fee) public onlyOwner {\n        s_fee = fee;\n    }\n\n    function fee() public view returns (uint256) {\n        return s_fee;\n    }\n\n}\n",
  "sourcePath": "/home/netrat/dev/doublrS/double-slash/src/truffle/contracts/Level1.sol",
  "compiler": {
    "name": "solc",
    "version": "0.6.6+commit.6c089d02.Emscripten.clang"
  },
  "schemaVersion": "3.4.1",
  "updatedAt": "2021-07-11T05:37:05.942Z",
  "devdoc": {
    "methods": {
      "acceptOwnership()": {
        "details": "Allows an ownership transfer to be completed by the recipient."
      },
      "constructor": {
        "details": "NETWORK: KOVANChainlink VRF Coordinator address: 0xdD3782915140c8f3b190B5D67eAc6dc5760C46E9LINK token address:                0xa36085F69e2889c224210F603D836748e7dC0088Key Hash:   0x6c3699283bda56ad74f6b855546325b68d482e983852a7a82979cc4807b641f4Fee:        0.1 LINK (100000000000000000)"
      },
      "transferOwnership(address)": {
        "details": "Allows an owner to begin transferring ownership to a new address, pending."
      }
    }
  },
  "userdoc": {
    "methods": {}
  }
}